{
  "contractName": "TodoFactory",
  "abi": [
    {
      "anonymous": false,
      "inputs": [
        {
          "indexed": false,
          "name": "todoId",
          "type": "uint256"
        }
      ],
      "name": "OnTodoAdded",
      "type": "event"
    },
    {
      "constant": false,
      "inputs": [
        {
          "name": "_taskName",
          "type": "string"
        }
      ],
      "name": "addTodo",
      "outputs": [],
      "payable": false,
      "stateMutability": "nonpayable",
      "type": "function"
    },
    {
      "constant": false,
      "inputs": [
        {
          "name": "_todoId",
          "type": "uint256"
        }
      ],
      "name": "deleteTodo",
      "outputs": [],
      "payable": false,
      "stateMutability": "nonpayable",
      "type": "function"
    }
  ],
  "bytecode": "0x608060405234801561001057600080fd5b5061035e806100206000396000f3fe608060405234801561001057600080fd5b50600436106100365760003560e01c80636e3c67381461003b57806395ffebf514610069575b600080fd5b6100676004803603602081101561005157600080fd5b8101908080359060200190929190505050610124565b005b6101226004803603602081101561007f57600080fd5b810190808035906020019064010000000081111561009c57600080fd5b8201836020820111156100ae57600080fd5b803590602001918460018302840111640100000000831117156100d057600080fd5b91908080601f016020809104026020016040519081016040528093929190818152602001838380828437600081840152601f19601f82011690508083019250505050505050919291929050505061016d565b005b80600081141561013357600080fd5b600080838154811061014157fe5b906000526020600020906002020160010160016101000a81548160ff0219169083151502179055505050565b610175610268565b6040518060600160405280838152602001600015158152602001600115158152509050600060016000839080600181540180825580915050906001820390600052602060002090600202016000909192909190915060008201518160000190805190602001906101e692919061028d565b5060208201518160010160006101000a81548160ff02191690831515021790555060408201518160010160016101000a81548160ff02191690831515021790555050500390507f6edbfebf4adc3e180444860a21cd838446f00049410a44c6ec4a178a2ebe529b816040518082815260200191505060405180910390a1505050565b6040518060600160405280606081526020016000151581526020016000151581525090565b828054600181600116156101000203166002900490600052602060002090601f016020900481019282601f106102ce57805160ff19168380011785556102fc565b828001600101855582156102fc579182015b828111156102fb5782518255916020019190600101906102e0565b5b509050610309919061030d565b5090565b61032f91905b8082111561032b576000816000905550600101610313565b5090565b9056fea165627a7a723058208606740a866044795be70039d9c4c36b7f58ab8cc2dd0aaa7d3ba0f0f33cbfe60029",
  "source": "pragma solidity >=0.4.21 <0.6.0;\n\ncontract TodoFactory {\n    struct Todo {\n        string taskName;\n        bool isCompleted;\n        bool isValid;\n    }\n\n    event OnTodoAdded(uint todoId);\n\n    Todo[] todos;\n\n    function addTodo(string memory _taskName) public {\n        Todo memory todo = Todo(_taskName, false, true);\n        uint todoId = todos.push(todo) - 1;\n        emit OnTodoAdded(todoId);\n    }\n\n    modifier isValidTodo(uint _todoId){\n        require(_todoId != 0);\n        _;\n    }\n\n    function deleteTodo(uint _todoId) public isValidTodo(_todoId) {\n        todos[_todoId].isValid = false;\n    }\n\n\n}",
  "sourcePath": "/Users/mars/Documents/dapp/EthereumTodo/contracts/TodoFactory.sol",
  "compiler": {
    "name": "solc",
    "version": "0.5.8+commit.23d335f2.Emscripten.clang"
  },
  "schemaVersion": "3.0.17",
  "updatedAt": "2019-11-06T10:15:36.087Z",
  "networkType": "ethereum",
  "devdoc": {
    "methods": {}
  },
  "userdoc": {
    "methods": {}
  }
}