{
  "contractName": "TodoFactory",
  "abi": [
    {
      "anonymous": false,
      "inputs": [
        {
          "indexed": false,
          "name": "todoId",
          "type": "uint256"
        }
      ],
      "name": "OnTodoAdded",
      "type": "event"
    },
    {
      "anonymous": false,
      "inputs": [
        {
          "indexed": false,
          "name": "todoId",
          "type": "uint256"
        }
      ],
      "name": "OnTodoCompleted",
      "type": "event"
    },
    {
      "constant": false,
      "inputs": [
        {
          "name": "_taskName",
          "type": "string"
        }
      ],
      "name": "addTodo",
      "outputs": [],
      "payable": false,
      "stateMutability": "nonpayable",
      "type": "function"
    },
    {
      "constant": false,
      "inputs": [
        {
          "name": "_todoId",
          "type": "uint256"
        }
      ],
      "name": "deleteTodo",
      "outputs": [],
      "payable": false,
      "stateMutability": "nonpayable",
      "type": "function"
    },
    {
      "constant": false,
      "inputs": [
        {
          "name": "_todoId",
          "type": "uint256"
        }
      ],
      "name": "completeTodo",
      "outputs": [],
      "payable": false,
      "stateMutability": "nonpayable",
      "type": "function"
    }
  ],
  "bytecode": "0x608060405234801561001057600080fd5b506103aa806100206000396000f3fe608060405234801561001057600080fd5b50600436106100415760003560e01c806320fe2144146100465780636e3c67381461007457806395ffebf5146100a2575b600080fd5b6100726004803603602081101561005c57600080fd5b810190808035906020019092919050505061015d565b005b6100a06004803603602081101561008a57600080fd5b8101908080359060200190929190505050610170565b005b61015b600480360360208110156100b857600080fd5b81019080803590602001906401000000008111156100d557600080fd5b8201836020820111156100e757600080fd5b8035906020019184600183028401116401000000008311171561010957600080fd5b91908080601f016020809104026020016040519081016040528093929190818152602001838380828437600081840152601f19601f8201169050808301925050505050505091929192905050506101b9565b005b80600081141561016c57600080fd5b5050565b80600081141561017f57600080fd5b600080838154811061018d57fe5b906000526020600020906002020160010160016101000a81548160ff0219169083151502179055505050565b6101c16102b4565b6040518060600160405280838152602001600015158152602001600115158152509050600060016000839080600181540180825580915050906001820390600052602060002090600202016000909192909190915060008201518160000190805190602001906102329291906102d9565b5060208201518160010160006101000a81548160ff02191690831515021790555060408201518160010160016101000a81548160ff02191690831515021790555050500390507f6edbfebf4adc3e180444860a21cd838446f00049410a44c6ec4a178a2ebe529b816040518082815260200191505060405180910390a1505050565b6040518060600160405280606081526020016000151581526020016000151581525090565b828054600181600116156101000203166002900490600052602060002090601f016020900481019282601f1061031a57805160ff1916838001178555610348565b82800160010185558215610348579182015b8281111561034757825182559160200191906001019061032c565b5b5090506103559190610359565b5090565b61037b91905b8082111561037757600081600090555060010161035f565b5090565b9056fea165627a7a7230582018d600b48229886fa725abf182b5901765e9567bc2b25e856f673ab596f1ee8c0029",
  "source": "pragma solidity >=0.4.21 <0.6.0;\n\ncontract TodoFactory {\n    struct Todo {\n        string taskName;\n        bool isCompleted;\n        bool isValid;\n    }\n\n    event OnTodoAdded(uint todoId);\n    event OnTodoCompleted(uint todoId);\n\n    Todo[] todos;\n\n    modifier isValidTodo(uint _todoId){\n        require(_todoId != 0);\n        _;\n    }\n\n    function addTodo(string memory _taskName) public {\n        Todo memory todo = Todo(_taskName, false, true);\n        uint todoId = todos.push(todo) - 1;\n        emit OnTodoAdded(todoId);\n    }\n\n    function deleteTodo(uint _todoId) public isValidTodo(_todoId) {\n        todos[_todoId].isValid = false;\n    }\n\n    function completeTodo(uint _todoId) public isValidTodo(_todoId){\n\n    }\n//    function completeTodo(uint _todoId) public isValidTodo(_todoId) {\n//        todos[_todoId].isCompleted = true;\n//        emit OnTodoCompleted(_todoId);\n//    }\n}",
  "sourcePath": "/Users/mars/Documents/dapp/EthereumTodo/contracts/TodoFactory.sol",
  "compiler": {
    "name": "solc",
    "version": "0.5.8+commit.23d335f2.Emscripten.clang"
  },
  "schemaVersion": "3.0.17",
  "updatedAt": "2019-11-07T02:49:39.253Z",
  "networkType": "ethereum",
  "devdoc": {
    "methods": {}
  },
  "userdoc": {
    "methods": {}
  }
}